:03000000021107E3
:0C110700787FE4F6D8FD75811F020D7E94
:0411130000000000D8
:100D7E0078097C007D007BFF7A1179137E007F0459
:100D8E00120C12E4F512F511F510F50F1210CE8FAC
:100D9E0008E4FFEFC39404748094805012E5086059
:0F0DAE0003FE80027E1074092FF8A6060F80E462
:100DBD00E5087003020ED3E47B14FAF9F8AF12AE16
:100DCD0011AD10AC0F120CDBAC00AD01AE02AF03D8
:100DDD00EC4D4E4F6003020ED31210F812080012A4
:100DED0010A58E0D8F0EE50EB4501DE50DB4051832
:100DFD00E47F2C7E01FDFCAB12AA11A910A80FC334
:100E0D00120D6D5003020ED3E50D54F060047F10EA
:100E1D0080027F118F09EF64107011E50EF4FFE56C
:100E2D000DF4FEEF2401F50EE43EF50DE50DC4F8CD
:100E3D0054F0C868FEE50EC4540F48FF7C007D0ACF
:100E4D00120C4AD3EF940AEE940040047F098000FF
:100E5D008F0AE50DC4F854F0C868FEE50EC4540FB2
:100E6D0048FF7C007D0A120C4AD3ED940AEC9400E5
:100E7D0040047F098002AF058F0B7E00E50E540FF5
:100E8D00FF7C007D0A120C38EF540FD39408EC94BC
:100E9D00004015EEC4F854F0C868FEEFC4540F4876
:100EAD002401FFE43EFE801C7E00E50E540FFF7C06
:100EBD00007D0A120C38EEC4F854F0C868FEEFC479
:100ECD00540F48FF8F0CE4F513E513FD7C00C3941C
:100EDD000474809480502674092513F8E6FFED64A0
:100EED000270047B0180027B00AD1312106C7F0A2F
:100EFD007E007D007C00120F22051380CCE51224AC
:100F0D0001F512E43511F511E43510F510E4350F46
:020F1D00F50FCE
:030F1F00020DBD03
:100FA500E4FFFEEEC39408748094805059C290000B
:100FB50000D2900000000000000000EFC313FF30D6
:100FC50090034307800000000000000000000000BF
:100FD500000000000000000000000000000000000C
:100FE50000000000000000000000000000000000FC
:100FF50000000000000000000000000000000000EC
:0610050000D2900E809D58
:01100B0022C2
:07100C007FCC1210137F449A
:10101300E4FEEEC3940874809480504CC29000EFB9
:101023001392900000000000000000000000000088
:1010330000000000000000000000000000000000AD
:10104300000000000000000000000000000000009D
:10105300000000000000000000000000000000D2BB
:0810630090EFC313FF0E80AAF9
:01106B002262
:1010CE00D29000000000000000000000120800EFA7
:0810DE0060037F00227F012264
:10080000E4FFC290000000000000000000000000B3
:1008100000000000000000000000000000000000D8
:1008200000000000000000000000000000000000C8
:1008300000000000000000000000000000000000B8
:1008400000000000000000000000000000000000A8
:100AF0000000D29000000000000000000000000094
:100B000000000030900DEFC394C8748094805003AF
:100B10000F80F0EFC394C87480948040037F01225B
:100B2000E4FF20900DEFC394F07480948050030F85
:100B300080F0C3EF94F07480948040037F01227FA3
:010B400000B4
:010B41002291
:0F10F800120800EF60037F002212100C7F01220C
:1010A5001210CE8F1412100C120800EF6004E4FE2B
:1010B500FF227FCC1210137FBE121013120FA5ADA5
:0810C50007120FA5EFFEEDFF7D
:0110CD002200
:1010E600C0F9A4B0999282F880908883C6A1868EB2
:0210F600BFFF3A
:10106C00EFC3941274809480502EEDC3940474805A
:10107C0094805024AE05A8067401088002C333D8AE
:10108C00FCF5A0EB600AEF9010E693547FFF80060E
:09109C00EF9010E693FF8F802213
:080F22008F178E168D158C143B
:100F2A00E4F51BF51AF519F518F51FF51EF51DF56B
:100F3A001CF51BF51AF519F518AF17AE16AD15AC59
:100F4A0014AB1BAA1AA919A818C3120D6D504BE4A9
:100F5A00F51FF51EF51DF51CE47F02FEFDFCAB1F17
:100F6A00AA1EA91DA81CC3120D6D5017E51F240146
:100F7A00F51FE4351EF51EE4351DF51DE4351CF597
:100F8A001C80D5E51B2401F51BE4351AF51AE43556
:0A0F9A0019F519E43518F518809FC9
:010FA400222A
:100B4200E709F608DFFA8046E709F208DFFA803E95
:100B520088828C83E709F0A3DFFA8032E309F60882
:100B6200DFFA8078E309F208DFFA807088828C83EA
:100B7200E309F0A3DFFA806489828A83E0A3F6089E
:100B8200DFFA805889828A83E0A3F208DFFA804C78
:100B920080D280FA80C680D4806980F2803380104F
:100BA20080A680EA809A80A880DA80E280CA8033B8
:100BB20089828A83ECFAE493A3C8C582C8CCC58330
:100BC200CCF0A3C8C582C8CCC583CCDFE9DEE78000
:100BD2000D89828A83E493A3F608DFF9ECFAA9F07F
:100BE200EDFB2289828A83ECFAE0A3C8C582C8CCD5
:100BF200C583CCF0A3C8C582C8CCC583CCDFEADEEE
:100C0200E880DB89828A83E493A3F208DFF980CC4F
:100C120088F0EF60010E4E60C388F0ED2402B40448
:100C22000050B9F582EB2402B4040050AF232345EF
:060C32008223900B927377
:100C3800EF8DF0A4A8F0CF8CF0A428CE8DF0A42ED0
:020C4800FE228A
:100C4A00BC000BBE0029EF8DF084FFADF022E4CC8E
:100C5A00F875F008EF2FFFEE33FEEC33FCEE9DEC57
:100C6A00984005FCEE9DFE0FD5F0E9E4CEFD22ED9D
:100C7A00F8F5F0EE8420D21CFEADF075F008EF2FE7
:100C8A00FFED33FD4007985006D5F0F222C398FDD8
:050C9A000FD5F0EA2275
:100C9F0075F008758200EF2FFFEE33FECD33CDCC0C
:100CAF0033CCC58233C5829BED9AEC99E58298408F
:100CBF000CF582EE9BFEED9AFDEC99FC0FD5F0D66C
:100CCF00E4CEFBE4CDFAE4CCF9A88222B800C1B996
:100CDF000059BA002DEC8BF084CFCECDFCE5F0CBD4
:100CEF00F97818EF2FFFEE33FEED33FDEC33FCEB0D
:100CFF0033FB10D703994004EB99FB0FD8E5E4F9C8
:100D0F00FA227818EF2FFFEE33FEED33FDEC33FCB4
:100D1F00C933C910D7059BE99A4007EC9BFCE99AA8
:100D2F00F90FD8E0E4C9FAE4CCFB2275F010EF2FED
:100D3F00FFEE33FEED33FDCC33CCC833C810D707ED
:100D4F009BEC9AE899400AED9BFDEC9AFCE899F828
:0E0D5F000FD5F0DAE4CDFBE4CCFAE4C8F922BB
:100D6D00EB9FF5F0EA9E42F0E99D42F0E89C45F0DC
:010D7D002253
:00000001FF
